:100000000C94A4050C94CC050C94CC050C94CC0554
:100010000C94CC050C94CC050C94CC050C94CC051C
:100020000C94CC050C941F080C94CC050C94CC05B6
:100030000C94CC050C9434090C94CC050C94CC0590
:100040000C940E070C94CC050C94CC050C94CC05A8
:100050000C94CC050C94CC050C94CC050C94CC05DC
:100060000C94CC050C94CC05000000002400270063
:100070002A0000000000250028002B0000000000DE
:1000800023002600290004040404040404040202DA
:100090000202020203030303030301020408102007
:1000A0004080010204081020010204081020000012
:1000B0000008000201000003040700000000000027
:1000C0000000904C9128924700C79334000B8100A8
:1000D000AB902891449247000B8300A381000B91C1
:1000E000349245934800078000A782000790289229
:1000F0004A9347000B8100A383000B9134924C007C
:100100000B80004A820007904A0055800007902823
:100110009248934500078100A383000B91349244D9
:100120009347000B8000A3820007830003902D9269
:1001300040934500078100BF9139000B8000AB90D0
:100140002D92459340000B8100A383000B913992BF
:1001500045934800078000A7820007902D9248939E
:100160004C000B8100AF9139000B8000AF902D92B5
:1001700047934A00078100A382000B91399248936C
:1001800045000B8000A3830007820003902C92445B
:10019000934700078100B382000B91389240000B17
:1001A0008000A082000B902C9244000B8100A3825F
:1001B000000B91389245934800078000A782830086
:1001C000079028924A9347000B8100AF9134000BAF
:1001D0008000AF9028924C934800078100AF913483
:1001E000000B8000AB82830003902D924593480062
:1001F000078100BF9139000B8000AB902D92459391
:1002000040000B8100AF913900078000AF902D9224
:10021000409345000B8100AF9139000B8000AF90F7
:100220002F00078100AF9130000B8000AB8283006C
:1002300003903200078100BF91419226934A000B40
:100240008000B78200AF90269145924D8300AF8128
:10025000000791489251000B8000AF902691480012
:10026000598100039148005D932D9247000381005E
:10027000038000A382000B9029914D9245000B83CF
:1002800000A382000781000391249243934C00074E
:100290008000BF9030000B8100B78000AF9030919C
:1002A0004092488300AF8100079124924C93430011
:1002B0000B8000A383000B902B9345000B81004A19
:1002C000830007914300558100079141924A00073E
:1002D0008000A381000B902B9148924000AF8200D8
:1002E00007810003912F9244934700078000B38257
:1002F000000B903B9240000B8100A082000B9144C8
:10030000924783000B8000A381000B903B914892A1
:100310004500AF8200079147924A000B8000A381FD
:10032000000B9034914400AF81000B914C92480037
:10033000078000A382000B9038924400AF82000730
:10034000810003912D9245934800078000B38200FD
:100350000B90349240000B8100A082000B912D92F3
:10036000459340000B8000AF903400078100AF91AF
:100370002D92459340000B80016B81828301729026
:1003800028000F914C924700B79334000B8000ABCC
:100390009028000B8300039147924400AB933400F4
:1003A000038200038000079045914800A79228002F
:1003B00007800003830003904A914700AB93340009
:1003C00003810007820003904C0055800007904A8B
:1003D000004E91280007808300079045924800A7AF
:1003E000933400038000078100039044914782000A
:1003F000AB922D0003800003830003810003904033
:10040000914500B79339000B8200AB922D000B830E
:1004100000039040914500AB9339000380000382B4
:1004200000079045914800A7922D000780000383A4
:1004300000039048914C00AB9339000B8200AF92BF
:100440002D0007830007904A914700A793390003C6
:100450008100078200039048914500AB922C000375
:100460008100038300038000039044914700B79309
:10047000380003800007820003904000A7922C0000
:1004800003800007830003904400AB93380003808F
:1004900000038200079045914800A792280007803A
:1004A000810003830003904A914700AB9334000B13
:1004B0008200AF922800078300079048914C00A764
:1004C0009334000B8200AF922D00078300038081DC
:1004D00000039045914800B79339000B8200AB921E
:1004E0002D000B8300039040914500AB933900072A
:1004F0008200AF922D000B8300039040914500AB2A
:100500009339000B8200AF922F00078300AF933026
:10051000000B8200AF92320007830003808100BB92
:100520009026000B820003914A924100B38000AFF5
:100530009026000F9145924D00AF8100038000038B
:10054000905191488200AB9226000F91480059814A
:1005500000039148004E932D0007820007904792B8
:100560004F00038100A3912900038000078300034B
:10057000904D924500AB9324000382000381000359
:10058000800003904C914300B79230000B8300B77A
:100590008200AF9230000F9048914000A793240052
:1005A000078100038200039043914C00AB922B0023
:1005B00003800007830003904500558000079043A7
:1005C0000055808200079041914A00A7922B0003BA
:1005D00080000B9040914800AB932F0003800003F4
:1005E0008200038100039047914400B7923B0003CF
:1005F000810007830003914000AB81000782000364
:100600009044914700AB923B000380000B904591D2
:100610004800AF800003820003904A914700AB92EC
:1006200034000381000B914400AF81000382000776
:10063000904C914800A79238000381000B91440030
:10064000AB932D00038100038200038000039048D8
:10065000914500B792340003810007830003914065
:1006600000A7932D0003810007820003904091456D
:1006700000AB923400078300AF932D000B82000380
:1006800090459140016783000F80810163902D9117
:100690003C924000C79334000B8000AB902D000BC0
:1006A0008300AF933400078000AF902D9139923CC6
:1006B000000B8300AF9334000B8000AF902D000738
:1006C0008300AF9334000B8000AB81820003902C39
:1006D000913B923E00078300BF9334000B8000AB38
:1006E000902C000B8300AF933400078000AF902C58
:1006F0009138923B000B8300AF9334000B8000AF26
:10070000902C00078300AF9334000B8000AB8182F4
:100710000003902D9139923C00078300BF93340071
:100720000B8000AB902D000B8300AF93340007804B
:1007300000AF902D91399234000B8300AF933400B9
:100740000B8000AF902D00078300AF9334000B8027
:1007500000AB81820003902C913892340007830013
:10076000BF9334000B8000AB902C000B8300AF9341
:100770003400078000AF902C9138923B000B83002F
:10078000AF9334000B8000AF902C00078300AF9331
:1007900034000B8000AB81820003902D913C92408D
:1007A00000078300BF9334000B8000AB902D000B3B
:1007B0008300AF933400078000AF902D913C9239B5
:1007C000000B8300AF9334000B8000AF902D000727
:1007D0008300AF9334000B8000AB81820003902C28
:1007E000913E923B00078300BF9334000B8000AB27
:1007F000902C000B8300AF933400078000AF902C47
:100800009138923B000B8300AF9334000B8000AF14
:10081000902C00078300AF9334000B8000AB8182E3
:100820000003902D9139923C00078300BF93340060
:100830000B8000AB902D913C9240000B8300AF9356
:100840003400078000AF902D91459240000B83004B
:10085000AF9334000B8000AF902D00078300AF935F
:1008600034000B8000AB81820003902C91449240B5
:1008700000078300BF9334000B8000AB902C000B6B
:100880008300AF933400078000AF902C000B8300EF
:10089000AF9334000B8000AF902C00078300AF9320
:1008A00034000B8000AB8182000B83F00308000052
:1008B00000000001085F00000000030803000300BF
:1008C000000508143E143E140408246A2B12000587
:1008D000086313086463050836495620500108036D
:1008E0000000000003081C22410000030841221CF4
:1008F0000000050828180E1828050808083E0808F2
:100900000208B07000000004080808080800020887
:1009100060600000000408601806010004083E4101
:10092000413E000308427F400000040862514946EE
:10093000000408224149360004081814127F0004FC
:1009400008274545390004083E494930000408613C
:1009500011090700040836494936000408064949C8
:100960003E00020850000000000208805000000015
:10097000030810284400000308141414000003089E
:1009800044281000000408025909060005083E49E1
:10099000555D0E04087E11117E0004087F4949361A
:1009A0000004083E4141220004087F41413E00040A
:1009B000087F4949410004087F0909010004083EF5
:1009C00041497A0004087F08087F000308417F41FD
:1009D000000004083040413F0004087F0814630011
:1009E00004087F4040400005087F020C027F050894
:1009F0007F0408107F04083E41413E0004087F093F
:100A000009060004083E4141BE0004087F0909763A
:100A10000004084649493200050801017F0101042C
:100A2000083F40403F0005080F3040300F05083FA9
:100A30004038403F05086314081463050807087030
:100A400008070408615149470002087F410000007F
:100A5000040801061860000208417F000000030836
:100A60000201020000040840404040000208010268
:100A70000000000408205454780004087F444438DF
:100A8000000408384444280004083844447F000423
:100A90000838545418000308047E05000004089820
:100AA000A4A4780004087F040478000308447D406F
:100AB000000004084080847D0004087F1028440062
:100AC0000308417F40000005087C047C047804088A
:100AD0007C04047800040838444438000408FC24EA
:100AE0002418000408182424FC0004087C080404CA
:100AF00000040848545424000308043F4400000440
:100B0000083C40407C0005081C2040201C05083C97
:100B1000403C403C0508442810284404089CA0A000
:100B20007C00030864544C000003080836410000B0
:100B300001087F0000000003084136080000050896
:100B40001C2244221C00541411241FBECFEFD8E0F5
:100B5000DEBFCDBF13E0A0E0B1E0E2EEF6E302C0FD
:100B600005900D92A433B107D9F725E0A4E3B3E0D3
:100B700001C01D92A33BB207E1F715E0C4EAD5E03E
:100B800004C02197FE010E949118C33AD107C9F70A
:100B90000E94D90C0C946F1B0C940000833081F0E0
:100BA00028F4813099F08230A1F008958730A9F0BF
:100BB0008830B9F08430D1F4809180008F7D03C0FB
:100BC000809180008F7780938000089584B58F771F
:100BD00002C084B58F7D84BD08958091B0008F7769
:100BE00003C08091B0008F7D8093B0000895CF93B3
:100BF000DF93282F30E0F901E255FF4F8491F9018E
:100C0000E656FF4FD491F901EA57FF4FC491CC2328
:100C100091F081110E94CE05EC2FF0E0EE0FFF1F46
:100C2000E458FF4FA591B491EC91ED2381E090E061
:100C300021F480E002C080E090E0DF91CF91089540
:100C40008E3008F08E508770806480937C00809195
:100C50007A00806480937A0080917A0086FDFCCFD0
:100C6000809178002091790090E0922B08953FB711
:100C7000F8948091380390913903A0913A03B09190
:100C80003B0326B5A89B05C02F3F19F00196A11D77
:100C9000B11D3FBFBA2FA92F982F8827820F911D12
:100CA000A11DB11DBC01CD0142E0660F771F881F59
:100CB000991F4A95D1F708952FB7F894609134039E
:100CC0007091350380913603909137032FBF0895BB
:100CD0001F93CF93DF93282F30E0F901E255FF4FA8
:100CE0008491F901E656FF4FD491F901EA57FF4F7D
:100CF000C491CC23C9F0162F81110E94CE05EC2F90
:100D0000F0E0EE0FFF1FEE58FF4FA591B4918FB7A3
:100D1000F894111105C09C91ED2FE095E92302C0D4
:100D2000EC91ED2BEC938FBFDF91CF911F91089544
:100D3000CF93DF9390E0FC01E656FF4F2491FC0136
:100D4000EA57FF4F8491882361F190E0880F991F43
:100D5000FC01E859FF4FC591D491FC01EE58FF4FBB
:100D6000A591B491611109C09FB7F894888120952D
:100D700082238883EC912E230BC0623061F49FB7ED
:100D8000F8943881822F809583238883EC912E2BD1
:100D90002C939FBF06C08FB7F894E8812E2B288331
:100DA0008FBFDF91CF9108958F929F92AF92BF92A4
:100DB000CF92DF92EF92FF926B017C010E94370687
:100DC0004B015C01C114D104E104F104F1F00E9473
:100DD0003706DC01CB0188199909AA09BB09883EAD
:100DE0009340A105B10570F321E0C21AD108E108D2
:100DF000F10888EE880E83E0981EA11CB11CC11476
:100E0000D104E104F10419F7DDCFFF90EF90DF90FA
:100E1000CF90BF90AF909F908F9008951F920F92A8
:100E20000FB60F9211242F933F938F939F93AF93FD
:100E3000BF938091340390913503A0913603B09114
:100E400037033091000523E0230F2D3720F401965E
:100E5000A11DB11D05C026E8230F0296A11DB11DDD
:100E6000209300058093340390933503A0933603B9
:100E7000B09337038091380390913903A0913A03DE
:100E8000B0913B030196A11DB11D8093380390934F
:100E90003903A0933A03B0933B03BF91AF919F9165
:100EA0008F913F912F910F900FBE0F901F9018952B
:100EB0008FE090E0DC01A752BC4FFC01E859FC4FE9
:100EC00020E030E04C91442331F02730310571F0BF
:100ED000408141110BC02F5F3F4F529670962830D2
:100EE000310581F7019730F781E0089580E008959A
:100EF0008FE090E0DC01A752BC4FFC01E85BFC4FA7
:100F000020E030E04C91442331F02115310571F09F
:100F1000408141110BC02F5F3F4F52967096283091
:100F2000310581F7019730F781E0089580E0089559
:100F3000CF93DF9369ED73E020E030E080E090E054
:100F4000AC01420F531FFA01E058FB4FEA01C85AA7
:100F5000DC4FDB01A80FB91F58814C91452B408312
:100F600001968031910561F76E5E7F4F205F3F4FA4
:100F70002038310519F7DF91CF9108950F931F9312
:100F8000CF93DF931F92CDB7DEB70E945807882317
:100F900021F147E554E0E9EDF3E020E030E08A019B
:100FA000020F131FB80162517109DB019C91D80136
:100FB0009C932F5F3F4F2031310589F742515109F2
:100FC000B3E0493D5B0749F7119293E0E93EF90729
:100FD000D9F789830E94980789810F90DF91CF917B
:100FE0001F910F910895CF93DF931F92CDB7DEB776
:100FF0000E9478078823F9F049ED53E020E030E0C3
:10100000FA01E20FF31F928990832F5F3F4F203147
:101010003105B1F74E5E5F4F94E04735590771F7E0
:10102000E7E5F4E0119294E0E736F907D9F7898310
:101030000E94980789810F90DF91CF9108951F92A8
:101040000F920FB60F9211242F933F934F935F93FC
:101050008F939F93AF93BF93EF93FF93E4E4F3E0F9
:101060002285338585859685820F931F9687858790
:10107000892F9927DC01A050BF4F2C9134854785DB
:10108000508982899389840F951F938B828B892F36
:101090009927DC01A050BF4F8C919189EAE7F4E0D9
:1010A000230290011124220F232F221F330B31958D
:1010B000205822838902C0011124880F892F881F9C
:1010C000990B919580588383FF91EF91BF91AF91D8
:1010D0009F918F915F914F913F912F910F900FBEF4
:1010E0000F901F901895CF92DF92FF920F931F934E
:1010F000CF93DF9301E015E034E6F32EE0913C035B
:10110000F0913D03CF01019690933D0380933C0302
:10111000C491C7FD16C03296F0933D03E0933C03A3
:10112000FC01849190E001969C2B90937504809330
:101130007404DF91CF911F910F91FF90DF90CF90BA
:1011400008952C2F207FCF702038A9F4C430B0F63A
:10115000D0E01C9FF0011D9FF00D1124EC5BFC4FB3
:101160001282FE01E05CFC4F1082CC0FDD1FCC5FD1
:10117000DC4F60E039C0203909F03FC03296C430FE
:10118000B8F5D0E0DE01A05CBC4F0C93F0933D03BA
:10119000E0933C03FC0144911C9FC0011D9F900DF6
:1011A00011249C012C5B3C4F6901E42FF0E0EE0F11
:1011B000FF1FE451FE4F60817181072E000C880BE8
:1011C000990B0E9498172AE13DEA45E050E40E94FD
:1011D000FC170E946717F60171836083F282CC0FBF
:1011E000DD1FCC5FDC4F61E088810E94680686CFFE
:1011F000F0933D03E0933C0381CF203E49F480917E
:101200003E0390913F0390933D0380933C0376CF40
:10121000203F09F073CF10926B0410925503109287
:10122000500310924B031092460310924003109209
:101230004103109242031092430360E081E00E9458
:10124000680660E081E00E94680660E081E00E943C
:10125000680660E081E0DF91CF911F910F91FF90D0
:10126000DF90CF900C9468061F920F920FB60F92EA
:1012700011242F933F934F935F936F937F938F939B
:101280009F93AF93BF93EF93FF93809176049091D8
:101290007704A0917804B09179040196A11DB11D45
:1012A0008093760490937704A0937804B0937904A4
:1012B0008097A105B105F4F080916B04882391F02B
:1012C0008091740490917504892B61F0809174046D
:1012D0009091750401979093750480937404892B01
:1012E00009F46EC01092760410927704109278047C
:1012F0001092790420914403309145038091470373
:1013000090914803820F931F909348038093470363
:10131000892F9927FC01E050FF4F908120914603CF
:101320006091490370914A0340914C0350914D03E1
:10133000460F571F50934D0340934C03452F55279D
:10134000FA01E050FF4F808140914B0392029001DF
:101350001124220F232F221F330B31952058209365
:101360007A048402C0011124880F892F881F990BE9
:101370009195805880937B0490E0820F911D20917D
:101380007C04820F911D20917D04820F911D959503
:101390008795959587959093890080938800FF9114
:1013A000EF91BF91AF919F918F917F916F915F91DD
:1013B0004F913F912F910F900FBE0F901F90189556
:1013C0000E9473088FCF8F929F92AF92BF92CF925D
:1013D000DF92EF92FF920F931F93CF93DF9300D092
:1013E000CDB7DEB78C0149832A83660F771FF801DA
:1013F000EA5AFF4FE080F180EE0CFF1CF801CF01AC
:10140000801B910B8E159F0514F41192F8CF8981E2
:10141000F801E60FF71F81838A818083680184E5E4
:10142000C80ED11C60E0F60180810E946806E00EC3
:10143000F11E5801F2E5AF0EB11C480180E5880E9F
:10144000911CC701801B910B1816190654F4F70163
:1014500042917F01F5016081F40180810E94AF0C0F
:10146000F0CF61E0F60180810F900F90DF91CF9176
:101470001F910F91FF90EF90DF90CF90BF90AF90B2
:101480009F908F900C9468060F931F93CF93DF93D8
:1014900000E814E0C1E0D0E080E090E020E0220F1E
:1014A000F801E80FF91F3081311121604096803832
:1014B0009105A9F7809157059091580502975CF026
:1014C000FE01EF5FFA4F278B4C2F61E070E081E067
:1014D00095E00E94E30980E090E020E0220FF8010F
:1014E000E80FF91F30853111216040968038910551
:1014F000A9F78091570590915805181619065CF4C4
:10150000FE01EF5FFA4F27874C2F60E070E081E02B
:1015100095E00E94E30921960F5F1F4FC930D10566
:1015200009F0BACFDF91CF911F910F910895DF920B
:10153000EF92FF920F931F93CF93DF93CDB7DEB758
:1015400064970FB6F894DEBF0FBECDBF9FE0E92EC3
:10155000F12C80E090E020E030E08701085A1C4F39
:10156000F801E80FF91F4081442311F02F5F3F4F2E
:10157000409680389105A1F72830310509F046C022
:1015800080917E0490917F04019690937F048093D4
:101590007E0480E090E0F801E80FF91F1082409689
:1015A00080389105C1F70E94980762E370E080E0FF
:1015B00090E00E94D406C80168E573E0F3E0883546
:1015C0009F0789F0DC0128E030E0AD01415051096E
:1015D000FA0140814C932150310950962115310573
:1015E000A1F70197EBCFFB011082605F7F4FF3E023
:1015F000683D7F07C1F70E94980762E370E080E0D2
:1016000090E00E94D4062FEFE21AF20A81E0E81A75
:10161000F108F7FE9ECFE8E5F3E08081882309F426
:10162000A3C0109255031092500310924B031092D6
:10163000460310924003109241031092420310920D
:10164000430360E081E00E94680660E081E00E9460
:10165000680660E081E00E94680660E081E00E9428
:10166000680610926B041092800010928100109214
:10167000B0001092B00060E089E00E9498060091EE
:101680007E0410917F0480E090E00E94EE1690E0CE
:101690008017910744F4602F80E090E00E94F616D6
:1016A000DD24D39401C0D12C20E834E080E090E028
:1016B000F901E80FF91F1082019680319105C1F7F9
:1016C000205F3F4F95E02030390781F70E94440AA0
:1016D00080917F048F9380917E048F938CE0E82E1D
:1016E00083E0F82EFF92EF928E01055F1F4F1F934C
:1016F0000F930E94971880E090E00E94EE161F92D0
:101700008F93FF92EF92FE0131967F01FF93EF934B
:101710000E9497180FB6F894DEBF0FBECDBFDD2034
:1017200061F08FE093E00E942515C8010E94251505
:1017300080E293E00E942515F2CF8DE293E00E94B3
:101740002515C8010E94251580E293E00E94251509
:1017500085E293E00E942515C7010E94251580E2CD
:1017600093E00E942515E9CF709693E0E83DF907D4
:1017700009F053CF0E94D71627E030E040E050E058
:101780000E9404176093690461110AC081E080938C
:101790000F048093100480931104809312043CC0C2
:1017A000613049F46093FD036093FE03609310047D
:1017B0006093220431C0623031F481E080932104CF
:1017C0008093FE0311C0633041F481E080930F04E5
:1017D000809310048093210409C0643051F481E0A7
:1017E0008093210480933304809310048093220417
:1017F00013C0653031F481E080932104809310049C
:1018000007C0663049F481E080930F04809321047F
:1018100080932204809334041092D80364960FB608
:10182000F894DEBF0FBECDBFDF91CF911F910F9116
:10183000FF90EF90DF9008958FE090E0FC01E75279
:10184000FC4F20E030E04081442391F08F3091053F
:1018500031F429ED33E048E553E061E02DC0D901D2
:10186000A80FB91FA85ABC4F11964C914111F1CF46
:101870007296205F3F4F2038310529F70197F0F627
:101880008FE090E0FC01E752FC4F28E030E0DF0100
:1018900011974C91408321503109729621153105E1
:1018A000B1F7019778F7E9EDF3E01082729684E0E2
:1018B000E735F807D1F71BC080E090E0F901E80FA9
:1018C000F91F7081772329F0DA01A80FB91F6C93F3
:1018D000108201968031910589F72E5E3F4F405F5F
:1018E0005F4F84E02936380739F70E94970A0C9435
:1018F0009807CF92DF92EF92FF920F931F93CF93AF
:10190000DF9377FD23C0FC01EA5AFF4F208131812C
:1019100062177307DCF4EB017C016B0183E0CC0CF4
:10192000DD1C8A95E1F701E010E0F801EC0DFD1DEA
:10193000EE0DFF1D178620E0402FBE01C7010E945B
:10194000E3090F5F1F4F0930110579F7DF91CF9140
:101950001F910F91FF90EF90DF90CF900895EF923D
:10196000FF920F931F93CF93DF93E82EF62EC7E0DD
:10197000D0E0042F10E098010C2E02C03595279579
:101980000A94E2F7B901617077278E2D0E946806EC
:1019900061E08F2D0E94680660E08F2D0E9468062E
:1019A000219748F7DF91CF911F910F91FF90EF9012
:1019B0000895789484B5826084BD84B5816084BDC7
:1019C00085B5826085BD85B5816085BD80916E00DD
:1019D000816080936E00109281008091810082600E
:1019E000809381008091810081608093810080914B
:1019F00080008160809380008091B100846080933A
:101A0000B1008091B00081608093B00080917A0035
:101A1000846080937A0080917A00826080937A005B
:101A200080917A00816080937A0080917A0080684A
:101A300080937A001092C10080E00E942006EC01A1
:101A400081E00E94200621960196C89F8001C99FCF
:101A5000100DD89F100D112482E00E9420060196DF
:101A6000089FE001099FD00D189FD00D112483E03D
:101A70000E9420060196C89F8001C99F100DD89F23
:101A8000100D1124B801012E000C880B990B611563
:101A900071058105910511F00E94DC160E94D71690
:101AA0000E94D71620EA34E34FEE50E00E9404175C
:101AB000DC01CB01885F924FAF4FBF4F089FE00121
:101AC000099FD00D189FD00D11240E94D71624E035
:101AD00030E040E050E00E940417862F0E9420066C
:101AE0008C0F9D1FBC01990F880B990B6115710517
:101AF0008105910511F00E94DC160E94D716809195
:101B00005705909158051816190644F421E04CE049
:101B100060E070E081E095E00E94E3098091570564
:101B200090915805029744F021E04CE061E070E0AC
:101B300081E095E00E94E309809157059091580556
:101B40001816190644F42AE04AE060E070E081E0EB
:101B500095E00E94E30980915705909158050297FE
:101B600044F02AE04AE061E070E081E095E00E9404
:101B7000E30960E070E081E095E00E94790C61E0AB
:101B800070E081E095E00E94790C62E085E00E94BF
:101B9000980662E088E00E94980662E086E00E9473
:101BA000980662E087E00E94980661E089E00E9462
:101BB000980681E0809381008093B10091E8909332
:101BC00080008093B00080917000816080937000ED
:101BD00080916F00816080936F000E94970A0E943D
:101BE000980782ECC82E80E0D82E809070049090E8
:101BF0007104A0907204B09073040E945C06861673
:101C00009706A806B90690F40E945C06DC01CB0199
:101C10008C509E4FAF4FBF4F8093700490937104D0
:101C2000A0937204B09373040E941C0C80916B0407
:101C3000811121C080916B04882381F0109255039B
:101C40001092500310924B031092460310924003DF
:101C5000109241031092420310924303D0923F032B
:101C6000C0923E03D0923D03C0923C030E94730891
:101C700081E080936B0480906C0490906D04A09040
:101C80006E04B0906F040E945C06681579058A05A1
:101C90009B0508F4EBC585E00E94F705892B99F4B4
:101CA0000E945C06DC01CB0188539F4FAF4FBF4FB2
:101CB00080936C0490936D04A0936E04B0936F04B2
:101CC0000E94F307C9C586E00E94F705892B99F4A5
:101CD0000E945C06DC01CB01805B9F4FAF4FBF4F82
:101CE00080936C0490936D04A0936E04B0936F0482
:101CF00084E090E0D4C587E00E94F705892B99F431
:101D00000E945C06DC01CB0188539F4FAF4FBF4F51
:101D100080936C0490936D04A0936E04B0936F0451
:101D20000E94BE0799C588E00E94F705892B09F03B
:101D30009DC50E945C06DC01CB0188539F4FAF4FCD
:101D4000BF4F80936C0490936D04A0936E04B09386
:101D50006F049090690423E0921609F47DC547E56D
:101D600054E000E010E027E030E080E090E0FA018D
:101D7000E80FF91F60816111890101968031910599
:101D8000B1F721503109425151092F3F8FEF3807E8
:101D900061F75801C0E0D0E08FE090E020E030E053
:101DA000F901E80FF91FE752FC4F40814111EC01A6
:101DB0002E5E3F4F2039310599F7019778F7911042
:101DC00035C18091D8038111FAC00E947807811132
:101DD0002FC08FE090E0DC01A752BC4F7D01FC01D9
:101DE000E857FC4F2BEF3FEFD7014C914423A1F074
:101DF0002330310508F430C5AF0140525109DA01F2
:101E00005C91BF0160517109DB014C91452B09F0D8
:101E100023C54081411120C5B2E1EB0EF11C709643
:101E20002F5F3F4F23303105F9F60197A0F680C0B0
:101E30000E94580781112FC08FE090E0DC01A7526B
:101E4000BC4F7D01FC01E85BFC4F20E030E0D70196
:101E50004C914423A1F0233031050CF4FDC4AF01B3
:101E600040515109DA015C91BF0160527109DB01F7
:101E70004C91452B09F0F0C440814111EDC42F5F16
:101E80003F4FB2E1EB0EF11C709628303105F9F6A8
:101E90000197A0F6EEC48FE090E0BC0167527C4F42
:101EA000FC01E858FC4F2AEF3FEFDB014C91442343
:101EB00069F022303105A8F0AF0140515109DA0133
:101EC0004C9141110EC0408141110BC06E5E7F4F9D
:101ED00070962F5F3F4F2230310539F70197E8F6B2
:101EE00030C08FE090E0BC0167527C4FFC01E85BA2
:101EF000FC4F20E030E0DB014C91442371F02230B4
:101F000031050CF4A9C4AF0140515109DA014C91DB
:101F10004111A2C4408141119FC42F5F3F4F6E5EAB
:101F20007F4F70962830310531F70197E0F6AEC447
:101F30000E94BE07882309F48FC45801BFEFAB1A73
:101F4000BB0A32E13A9DF0013B9DF00D1124DF0107
:101F5000AC0FBD1FA752BC4F1C92E752FC4FEC0FB9
:101F6000FD1F12821382C5010197389FF001399F2E
:101F7000F00D1124CE010196E80FF91FE752FC4F36
:101F800021E02083A5014F5F5F4F349FF001359F13
:101F9000F00D1124E80FF91FE752FC4F20834F5F2B
:101FA0005F4F349FF001359FF00D11248E0F9F1F5E
:101FB000FC01E752FC4F20832093D80337C082E115
:101FC000809FF001819FF00D1124EC0FFD1FE7525F
:101FD000FC4F108298012E5F3F4F829FF001839F3C
:101FE000F00D1124EC0FFD1FE752FC4F10822F5F04
:101FF0003F4F829FF001839FF00D1124EC0FFD1FD6
:10200000E752FC4F10820F5F1F4F809FF001819FAE
:10201000F00D1124E752FC4FEC0FFD1FDF0111976B
:1020200081E08C93818382831092D80375013FEF06
:10203000E31AF30A8E010F5F1F4F41E0941208C1AB
:102040008091D803811139C042E14A9DC0014B9D66
:10205000900D1124FC01EC0FFD1FE752FC4F108284
:10206000800F911FFC01E752FC4F108282E0A80E06
:10207000B11C4A9D90014B9D300D1124020F131F7E
:10208000F801E752FC4F10824E9DC0014F9D900D0C
:102090001124FC01EC0FFD1FE752FC4F90822C0F26
:1020A0003D1FF901E752FC4F908287529C4FC80FA9
:1020B000D91F9A829092D803A9C3813009F047C0F2
:1020C0000E947807811109C00E94BE07882309F485
:1020D000C3C3750192E0E90EF11C9701215031094B
:1020E00042E1429FC001439F900D1124FC01EC0F7F
:1020F000FD1FE752FC4F10824E9D90014F9D300D09
:102100001124F901EC0FFD1FE752FC4F10822296BB
:102110008C0F9D1FFC01E752FC4F1082A2E0EA1ACF
:10212000F1084E9DF0014F9DF00D1124E00FF11FBD
:10213000E752FC4F81E08083020F131FF801E75242
:10214000FC4F8083C20FD31FC752DC4F51C2823075
:10215000D1F542E14A9DC0014B9D900D1124FC0137
:10216000EC0FFD1FE752FC4F1082B2E0AB0EB11C2A
:102170004A9D90014B9D300D1124F901EC0FFD1F7C
:10218000E752FC4F1082200F311FF901E752FC4F3C
:1021900010824E9D90014F9D300D1124C20FD31F10
:1021A000C852DC4F9882200F311FF901E752FC4FD3
:1021B0009082080F191FF801E752FC4F908283E0CC
:1021C0008093D80323C30E945807811105C00E9441
:1021D000F307811102C040C3570142E14A9DC0018B
:1021E0004B9D900D1124FC01EC0FFD1FE752FC4F9D
:1021F00010829E012E5F3F4F820F931FFC01E7521A
:10220000FC4F1082B50161507109469FC001479F84
:10221000900D1124280F391FF901E752FC4F10824D
:10222000C80FD91FC752DC4F21E02883800F911FB0
:10223000FC01E752FC4F20833FEFA31AB30A4A9DEB
:10224000F0014B9DF00D11240E0F1F1FF801A4C2C9
:1022500042E0941205C18091D803811138C0A501D4
:102260004E5F5F4F22E1249FC001259F900D1124F6
:10227000FC01EC0FFD1FE752FC4F10822A9DF0017C
:102280002B9DF00D1124E00FF11FE752FC4F10823F
:10229000080F191FF801E752FC4F10822E9DA00174
:1022A0002F9D500D1124FA01EC0FFD1FE752FC4F3A
:1022B00021E0208322968C0F9D1FFC01E752FC4FEA
:1022C0002083C40FD51FC752DC4F288329C2813019
:1022D00009F048C00E947807811109C00E94BE071A
:1022E000882309F4B9C2750182E0E80EF11CC70128
:1022F000019742E1489F9001499F300D1124F90157
:10230000EC0FFD1FE752FC4F108222964E9DC0013C
:102310004F9D900D1124FC01EC0FFD1FE752FC4F67
:1023200010822C0F3D1FF901E752FC4F1082A2E0F2
:10233000EA1AF1084E9DB0014F9D700D1124FB016A
:10234000E00FF11FE752FC4F21E02083080F191F17
:10235000F801E752FC4F2083C60FD71FC752DC4F4E
:10236000288347C18230C1F542E14A9D90014B9DCF
:10237000300D1124F901EC0FFD1FE752FC4F1082C4
:10238000B2E0AB0EB11C4A9DF0014B9DF00D112443
:10239000EC0FFD1FE752FC4F1082F901E00FF11F17
:1023A000E752FC4F108221974E9DC0014F9D900D2A
:1023B0001124FC01EC0FFD1FE752FC4F41E040836C
:1023C000080F191FF801E752FC4F4083C20FD31FBB
:1023D000C752DC4F4883F3CE0E945807811105C0D5
:1023E0000E94F307811102C037C2570142E14A9DA2
:1023F000C0014B9D900D1124FC01EC0FFD1FE75215
:10240000FC4F108287529C4FFC01EC0FFD1F128283
:10241000C5010197489F9001499F300D1124F90192
:10242000EC0FFD1FE752FC4F10828FEFA81AB80A7D
:102430004A9DC0014B9D900D1124C80FD91FC75252
:10244000DC4F41E04883200F311FF901E752FC4F78
:102450004083080F191FF801E752FC4F40839FC1CA
:1024600094E0991258C08091D803811120C0A50131
:102470004E5F5F4F22E1249FC001259F900D1124E4
:10248000FC01EC0FFD1FE752FC4F10822A9DF0016A
:102490002B9DF00D1124E00FF11FE752FC4F10822D
:1024A000080F191FF801E752FC4F21E05FC00E949E
:1024B0007807811109C00E94BE07882309F4CCC1A6
:1024C0007501A2E0EA0EF11C22E12E9DC0012F9DB4
:1024D000900D1124FC01E00FF11FE752FC4F108218
:1024E000FC01E752FC4FEC0FFD1F1282B2E0EB1A29
:1024F000F1082E9DF0012F9DF00D11240E0F1F1FCE
:10250000F801E752FC4F21E02083C80FD91FC752C2
:10251000DC4F288344C125E09212D1C08091D803BA
:1025200081112BC022E12E9DC0012F9D900D112401
:10253000DC01AC0FBD1FA752BC4F2A9DF0012B9DA3
:10254000F00D1124E00FF11FE752FC4F108232E032
:10255000A30EB11C2A9DF0012B9DF00D11240E0F2E
:102560001F1FF801E752FC4F21E02C932083875274
:102570009C4FC80FD91F2A83D3C08130E1F50E9438
:102580007807811109C00E94BE07882309F464C13D
:10259000750142E0E40EF11CA7014150510922E10E
:1025A000249FC001259F900D1124FC01EC0FFD1FFD
:1025B000E752FC4F10822E9DF0012F9DF00D11244B
:1025C000E00FF11FE752FC4FC80FD91FC552DC4F77
:1025D00082E0E81AF1082E9DD0012F9DB00D112444
:1025E0000A0F1B1FD801A752BC4F81E08C93808338
:1025F000888382E0E5CD823051F522E12A9DF00109
:102600002B9DF00D1124EC0FFD1FE752FC4F92E0C3
:10261000A90EB11C2A9DD0012B9DB00D1124AC0F29
:10262000BD1FA752BC4F1C922E9DC0012F9D900D27
:102630001124080F191FD801A752BC4FC80FD91F6A
:10264000C852DC4F81E0888380838C93B8CD0E9490
:102650005807811106C00E94F307882309F4FCC0C3
:10266000750122E12E9DC0012F9D900D1124DC01EA
:10267000AC0FBD1FA752BC4FA70141505109249F69
:10268000F001259FF00D1124E00FF11FE752FC4FE0
:1026900087529C4FC80FD91F1A8281E08C93808388
:1026A000AFEFEA1AFA0A2E9DF0012F9DF00D1124CA
:1026B0000E0F1F1FF801E752FC4F808370C0B6E079
:1026C0009B12A4C08091D80381112DC042E14A9D84
:1026D000F0014B9DF00D1124EC0FFD1FE752FC4F54
:1026E00010824E9DC0014F9D900D1124FC01EC0FF6
:1026F000FD1FE752FC4F10822FEFE21AF20A4E9DA7
:1027000090014F9D300D1124C20FD31FC752DC4FD3
:1027100021E0288387529C4FFC01E00FF11F2183A9
:102720002093D80373C00E947807811108C00E94CB
:10273000BE07882309F490C03FEFE31AF30AA7010C
:1027400041505109C801019722E12E9DF0012F9DB2
:10275000F00D1124E80FF91FE752FC4F1082249F5F
:10276000F001259FF00D1124AF0147525C4FDA01B3
:10277000A00FB11F11961C9242E0E41AF1082E9DA1
:10278000D0012F9DB00D1124A80FB91FA752BC4F27
:1027900021E02C93E80FF91FE752FC4F20831092A1
:1027A000D80334C07296205F3F4F20373105B1F116
:1027B00040814423B9F3D901A80FB91FA85ABC4FCF
:1027C0004C91442379F389ED93E020E030E0FC0163
:1027D000E20FF31F418140832E5E3F4F20393105C8
:1027E000B1F70196A3E08B3E9A0779F70E945C0649
:1027F000DC01CB018C509E4FAF4FBF4F80937004D4
:1028000090937104A0937204B093730480E090E0FD
:10281000FC01E752FC4F20E030E0CACF0196803146
:102820009105B1F780E090E0FC01E752FC4F208970
:102830002111C9CF42968E379105B1F780E090E023
:10284000FC01E752FC4F21892111BDCF42968E3702
:102850009105B1F70E9498070E94440A80E090E039
:10286000892B09F4C2C90E940000BFC980E090E032
:1028700016C00E94F307882379F30E94F307882388
:1028800059F35801B2E0AB1AB1085BCB0E94F307D1
:10289000882311F3580121E0A21AB10852CB049702
:1028A000D9F60E941C0CD8CFCF93DF93C2E0D0E0C2
:1028B000D0935205C093510583E090E09093540566
:1028C0008093530584E090E09093560580935505DE
:1028D000D0935805C093570561E082E00E949806A6
:1028E00061E0809153050E94980661E08091550552
:1028F0000E94980661E0809155050E946806D09379
:102900005205C0935105E1E1F5E0119285E0E13512
:10291000F807D9F7C0E0D0E08091570590915805AD
:10292000C817D907ACF520E04FE0BE0181E095E083
:102930000E94E309D7FD0EC080915705909158057C
:10294000C817D9073CF427E04BE0BE0181E095E0D1
:102950000E94E30920E049E0BE0181E095E00E9489
:10296000E309BE0181E095E00E94790CD7FD0EC01D
:102970008091570590915805C817D9073CF420E07D
:102980004CE0BE0181E095E00E94E3092196C4CFAE
:10299000E9E5F5E0119285E0E93AF807D9F7DF912A
:1029A000CF910895DF92EF92FF920F931F93CF93F1
:1029B000DF93C82FD62EE82EE694E694E694F12C09
:1029C000D82FD77060E0809155050E94680600E01E
:1029D00010E0DF5F8091570590915805081719079F
:1029E000ECF40E151F0549F44D2F609153058091AD
:1029F00051050E94AF0C4D2D08C040E06091530579
:102A0000809151050E94AF0C40E060915305809188
:102A100051050E94AF0C0F5F1F4FDCCF60E080912B
:102A200055050E94680661E0809155050E94680680
:102A3000EC2FF0E0E75AFA4FD082DF91CF911F914F
:102A40000F91FF90EF90DF9008952F923F924F9259
:102A50005F926F927F928F929F92AF92BF92CF922E
:102A6000DF92EF92FF920F931F93CF93DF93CDB737
:102A7000DEB727970FB6F894DEBF0FBECDBF1C019F
:102A8000412C512C32014394F10161911F016623C5
:102A900009F426C16032C4F3605227E0629FB0019E
:102AA00011246455774F47E050E089EA95E00E9491
:102AB000E516C090A905D12CA090AA05B12C38E04C
:102AC000A316B10449F099E6E92E95E0F92E20E12C
:102AD00030E03F832E832EC000E110E0C801409714
:102AE0008C159D056CF4003511053CF4F801E55694
:102AF000FA4F6081802F0E94D2140F5F1F4FEECFDC
:102B00008091A90560E0805F0E94D21400E010E08F
:102B1000A5C0203531054CF10F5F1F4F2E813F813D
:102B20000A151B05B4F32F5F3F4F3F832E833FEF02
:102B3000E31AF30A8E819F8140978C159D0504F757
:102B40008E81869586958695282F30E03A83298355
:102B500000E010E02E813F8125563A4F3C832B83C5
:102B60008E8187708F5F8D83D9CF08301105A4F6D1
:102B7000EB81FC81808190E0002E02C095958795C5
:102B80000A94E2F780FF0EC0F7012081D301C20151
:102B9000002E04C0880F991FAA1FBB1F0A94D2F7EA
:102BA000822B0EC0D301C201002E04C0880F991FD2
:102BB000AA1FBB1F0A94D2F78095F7019081892341
:102BC000808360E0809155050E946806812C912CDD
:102BD0008091570590915805881699060CF5298122
:102BE0003A818216930651F44D816091530580918C
:102BF00051050E94AF0CF701408108C040E0609190
:102C00005305809151050E94AF0C40E0609153053F
:102C1000809151050E94AF0CFFEF8F1A9F0AD8CF09
:102C200060E0809155050E94680661E0809155053D
:102C30000E94680671CF60E0809155050E94680689
:102C400061E0809155050E9468063FEFA31AB30A20
:102C500089E0A816B104E1F40F5F1F4F8091A90528
:102C600090E0801791070CF40FCF60E570E080E0F2
:102C700090E00E94D406EAE5F5E08191DF01129729
:102C80008C9335E0EA3AF307C1F7AA24A394B12C58
:102C900060E0809155050E946806C501885A9A4FE8
:102CA0007C01C12CD12C8091570590915805C816F4
:102CB000D9060CF64A2D60915305809151050E946A
:102CC000AF0CF701408160915305809151050E943E
:102CD000AF0CFFEFCF1ADF0A28E0E20EF11CE3CFC2
:102CE00027960FB6F894DEBF0FBECDBFDF91CF9110
:102CF0001F910F91FF90EF90DF90CF90BF90AF901A
:102D00009F908F907F906F905F904F903F902F900B
:102D100008958F929F92AF92BF92CF92DF92EF92DF
:102D2000FF92CF93DF93EC01688179818A819B8147
:102D3000611571058105910521F464E279ED8BE55A
:102D400097E02DE133EF41E050E00E940417490184
:102D50005A019B01AC01A7EAB1E40E9423176B0161
:102D60007C01ACEEB4EFA50194010E943117DC01A7
:102D7000CB018C0D9D1DAE1DBF1DB7FF03C001977C
:102D8000A109B04888839983AA83BB83BC01CD0184
:102D90009F77DF91CF91FF90EF90DF90CF90BF9022
:102DA000AF909F908F9008950E948916089580E0BB
:102DB00092E00E94891608956093000270930102C8
:102DC00080930202909303020895FB01DC0102C08C
:102DD00005900D9241505040D8F70895F999FECFD3
:102DE00092BD81BDF89A992780B50895262FF9994B
:102DF000FECF1FBA92BD81BD20BD0FB6F894FA9ADE
:102E0000F99A0FBE01960895052E97FB1EF40094C3
:102E10000E941B1757FD07D00E94361707FC03D0EE
:102E20004EF40C941B1750954095309521953F4FCB
:102E30004F4F5F4F089590958095709561957F4FA6
:102E40008F4F9F4F08950E945817A59F900DB49FD4
:102E5000900DA49F800D911D11240895B7FF0C942F
:102E600023170E942317821B930B0895A1E21A2EA9
:102E7000AA1BBB1BFD010DC0AA1FBB1FEE1FFF1F1E
:102E8000A217B307E407F50720F0A21BB30BE40B6E
:102E9000F50B661F771F881F991F1A9469F76095B5
:102EA0007095809590959B01AC01BD01CF0108956F
:102EB000A29FB001B39FC001A39F700D811D11247B
:102EC000911DB29F700D811D1124911D08950E94C6
:102ED000DB1788F09F5798F0B92F9927B751B0F0BA
:102EE000E1F0660F771F881F991F1AF0BA95C9F78E
:102EF00014C0B13091F00E94F517B1E008950C9420
:102F0000F517672F782F8827B85F39F0B93FCCF3D2
:102F1000869577956795B395D9F73EF4909580950A
:102F2000709561957F4F8F4F9F4F0895E89409C02A
:102F300097FB3EF490958095709561957F4F8F4FEC
:102F40009F4F9923A9F0F92F96E9BB279395F69502
:102F5000879577956795B795F111F8CFFAF4BB0F80
:102F600011F460FF1BC06F5F7F4F8F4F9F4F16C0E4
:102F7000882311F096E911C0772321F09EE8872F6E
:102F8000762F05C0662371F096E8862F70E060E02A
:102F90002AF09A95660F771F881FDAF7880F9695A3
:102FA000879597F9089557FD9058440F551F59F08C
:102FB0005F3F71F04795880F97FB991F61F09F3F26
:102FC00079F087950895121613061406551FF2CF4F
:102FD0004695F1DF08C0161617061806991FF1CF9F
:102FE00086957105610508940895E894BB276627C6
:102FF0007727CB0197F908950E940F180C94801839
:103000000E94721838F00E94791820F0952311F070
:103010000C9469180C946F1811240C94F6170E94E4
:10302000D31770F3959FC1F3950F50E0551F629F22
:10303000F001729FBB27F00DB11D639FAA27F00D11
:10304000B11DAA1F649F6627B00DA11D661F829F38
:103050002227B00DA11D621F739FB00DA11D621F1D
:10306000839FA00D611D221F749F3327A00D611D3A
:10307000231F849F600D211D822F762F6A2F11241C
:103080009F5750409AF0F1F088234AF0EE0FFF1F4F
:10309000BB1F661F771F881F91505040A9F79E3FA6
:1030A000510580F00C9469180C94F6175F3FE4F317
:1030B000983ED4F3869577956795B795F795E795FC
:1030C0009F5FC1F7FE2B880F911D9695879597F905
:1030D000089597F99F6780E870E060E008959FEF9A
:1030E00080EC089500240A9416161706180609069F
:1030F000089500240A94121613061406050608956E
:10310000092E0394000C11F4882352F0BB0F40F4F5
:10311000BF2B11F460FF04C06F5F7F4F8F4F9F4F35
:103120000895EE0FFF1F0590F491E02D0994AEE095
:10313000B0E0EDE9F8E10C94461B0D891E8986E0AC
:103140008C831A8309838FEF9FE79E838D83AE0163
:10315000475E5F4F6F89788DCE0101960E94BA1845
:103160002F813885F801E20FF31F10822E96E4E0DC
:103170000C94621BACE0B0E0E0ECF8E10C94381B7E
:103180007C016B018A01FC0117821682838181FF19
:10319000BDC1CE0101964C01F7019381F60193FD6B
:1031A000859193FF81916F01882309F4ABC185322A
:1031B00039F493FD859193FF81916F01853229F454
:1031C000B70190E00E94A21AE7CF512C312C20E0E9
:1031D0002032A0F48B3269F030F4803259F083321F
:1031E00069F420612CC08D3239F0803339F42160CC
:1031F00026C02260246023C0286021C027FD27C08C
:1032000030ED380F3A3078F426FF06C0FAE05F9EC2
:10321000300D1124532E13C08AE0389E300D112436
:10322000332E20620CC08E3221F426FD6BC1206447
:1032300006C08C3611F4206802C0883641F4F601CD
:1032400093FD859193FF81916F018111C1CF982FDB
:103250009F7D9554933028F40C5F1F4FFFE3F98353
:103260000DC0833631F0833771F0833509F05BC0D0
:1032700022C0F801808189830E5F1F4F442443944C
:10328000512C540115C03801F2E06F0E711CF80189
:10329000A080B18026FF03C0652D70E002C06FEFF3
:1032A0007FEFC5012C870E94971A2C0183012C8582
:1032B0002F77222E17C03801F2E06F0E711CF80133
:1032C000A080B18026FF03C0652D70E002C06FEFC3
:1032D0007FEFC5012C870E948C1A2C012C85206859
:1032E000222E830123FC1BC0832D90E04816590633
:1032F000B0F4B70180E290E00E94A21A3A94F4CFB1
:10330000F50127FC859127FE81915F01B70190E0CF
:103310000E94A21A31103A94F1E04F1A5108411458
:10332000510471F7E5C0843611F0893639F5F8019A
:1033300027FF07C060817181828193810C5F1F4FDD
:1033400008C060817181072E000C880B990B0E5FFD
:103350001F4F2F76722E97FF09C09095809570951C
:1033600061957F4F8F4F9F4F2068722E2AE030E08B
:10337000A4010E94DA1AA82EA81844C0853729F49F
:103380002F7EB22E2AE030E025C0F22FF97FBF2E2B
:103390008F36C1F018F4883579F0B4C0803719F051
:1033A000883721F0AFC02F2F2061B22EB4FE0DC0A0
:1033B0008B2D8460B82E09C024FF0AC09F2F966011
:1033C000B92E06C028E030E005C020E130E002C0A0
:1033D00020E132E0F801B7FE07C06081718182818F
:1033E00093810C5F1F4F06C06081718180E090E087
:1033F0000E5F1F4FA4010E94DA1AA82EA818FB2DF9
:10340000FF777F2E76FE0BC0372D3E7FA51450F43C
:1034100074FE0AC072FC08C0372D3E7E05C0BA2C6F
:10342000372D03C0BA2C01C0B52C34FF0DC0FE01EE
:10343000EA0DF11D8081803311F4397E09C032FF1D
:1034400006C0B394B39404C0832F867809F0B39474
:1034500033FD13C030FF06C05A2CB31418F4530CBC
:103460005B18B32CB31468F4B70180E290E03C879A
:103470000E94A21AB3943C85F5CFB31410F43B1804
:1034800001C0312C34FF12C0B70180E390E03C87CB
:103490000E94A21A3C8532FF17C031FD03C088E7A5
:1034A00090E002C088E590E0B7010CC0832F8678D9
:1034B00059F031FF02C08BE201C080E237FD8DE29E
:1034C000B70190E00E94A21AA51438F4B70180E376
:1034D00090E00E94A21A5A94F7CFAA94F401EA0D40
:1034E000F11D8081B70190E00E94A21AA110F5CFD2
:1034F000332009F451CEB70180E290E00E94A21A75
:103500003A94F6CFF7018681978102C08FEF9FEF43
:103510002C96E2E10C94541BFC0105906150704024
:103520000110D8F7809590958E0F9F1F0895FC018C
:103530006150704001900110D8F7809590958E0FE2
:103540009F1F08950F931F93CF93DF93FB01238158
:1035500021FD03C08FEF9FEF28C022FF16C04681D8
:103560005781248135814217530744F4A081B181EA
:103570009D012F5F3F4F318320838C9326813781BC
:103580002F5F3F4F3783268310C0EB01092F182F81
:103590000084F185E02D0995892BE1F68E819F81CC
:1035A00001969F838E83812F902FDF91CF911F9162
:1035B0000F910895FA01AA27283051F1203181F1A5
:1035C000E8946F936E7F6E5F7F4F8F4F9F4FAF4F2B
:1035D000B1E03ED0B4E03CD0670F781F891F9A1F3E
:1035E000A11D680F791F8A1F911DA11D6A0F711DF2
:1035F000811D911DA11D20D009F468943F912AE0FE
:10360000269F11243019305D3193DEF6CF010895E5
:10361000462F4770405D4193B3E00FD0C9F7F6CF16
:10362000462F4F70405D4A3318F0495D31FD4052DE
:10363000419302D0A9F7EACFB4E0A6959795879574
:1036400077956795BA95C9F7009761057105089553
:103650009B01AC010A2E06945795479537952795FF
:10366000BA95C9F7620F731F841F951FA01D089597
:103670002F923F924F925F926F927F928F929F9282
:10368000AF92BF92CF92DF92EF92FF920F931F9370
:10369000CF93DF93CDB7DEB7CA1BDB0B0FB6F89421
:1036A000DEBF0FBECDBF09942A88398848885F8461
:1036B0006E847D848C849B84AA84B984C884DF80D2
:1036C000EE80FD800C811B81AA81B981CE0FD11DB6
:1036D0000FB6F894DEBF0FBECDBFED010895F8948C
:0236E000FFCF1A
:1036E2007F7F7F7F7F7F7F7F7F7F7F7F7F7F7F7FE8
:1036F2007F7F7F7F7F7F7F7F7F7F7F7F7F7F7F7FD8
:103702007F7F7F7F7F7F7F7F7F7F7F7F7F7F7F7FC7
:103712007F7F7F7F7F7F7F7F7F7F7F7F7F7F7F7FB7
:103722007F7F7F7F7F7F7F7F7F7F7F7F7F7F7F7FA7
:103732007F7F7F7F7F7F7F7F7F7F7F7F7F7F7F7F97
:103742007F7F7F7F7F7F7F7F7F7F7F7F7F7F7F7F87
:103752007F7F7F7F7F7F7F7F7F7F7F7F7F7F7F7F77
:103762008181818181818181818181818181818147
:103772008181818181818181818181818181818137
:103782008181818181818181818181818181818127
:103792008181818181818181818181818181818117
:1037A2008181818181818181818181818181818107
:1037B20081818181818181818181818181818181F7
:1037C20081818181818181818181818181818181E7
:1037D20081818181818181818181818181818181D7
:1037E2000100000010001100120013001500160065
:1037F200170018001A001C001D001F0021002300E2
:103802002500270029002C002E003100340037004B
:103812003A003E004100450049004E005200570068
:103822005C00620068006E0075007B0083008B0004
:1038320093009C00A500AF00B900C400D000DC00DA
:10384200E900F70006011501260137014A015D0171
:10385200720188019F01B801D201EE010B022A0216
:103862004B026E029302BA02E40210033F0370039A
:10387200A403DC03170455049704DD04270575052A
:10388200C80520067D06E0064907B8072D08A908E5
:103892002D09B9094D0AEA0A900B400CFA0CC00D29
:1038A200910E6F0F5A1053115B1272139A14D415A2
:1038B20020178018F519801B231DDE1EB420A622B6
:1038C200B524E4263429A72B402E0031EA330037F1
:1038D200453ABC3D68414C456B49C84D68524F570B
:1038E200805C006201000100010001002569006E98
:1038F200657720686967682073636F7265202000AE
:103902002020202000686967686573742073636FE4
:0439120072652000BA
:00000001FF
